:10080000E4F5A0C291F508F509309003C38001D347
:1008100092913091160509E50970020508D39409F3
:10082000E50894004005E4F508F509E5087068E579
:1008300009B40A00506190083DF828287302085B4B
:1008400002086002086502086A02086F0208740262
:10085000087902087E02088302088A75A03F802D6D
:1008600075A006802875A05B802375A04F801E753B
:10087000A066801975A06D801475A07D800F75A08D
:1008800007800A75A07F7F64800575A06F7F327E28
:10089000001208A402080975A03F7F327E001208EA
:0408A000A40208099D
:1008A400E4FDFCC3ED9FEC9E5015E4FBFA0BBB008A
:0F08B400010ABA04F8BBFBF50DBD00010C80E48E
:0108C3002212
:030000000208C42F
:0C08C400787FE4F6D8FD75810902080079
:00000001FF
