:1008B40048656C6C6F20576F726C640053616D7582
:1008C400656C204C756E676865003830353120756D
:0208D4004300DF
:080847008FB0D2A17F057E00F5
:10084F00E4FDFCC3ED9FEC9E5015E4FBFA0BBB00DF
:0F085F00010ABA04F8BBFBF50DBD00010C80E4E3
:01086E002267
:100800001208EF7BFF7A0879B412086F7FE87E0345
:1008100012084F7D047C007F027E001208927BFF4D
:100820007A0879C012086F7FE87E0312084F120918
:100830001F7D017C007F017E001208927BFF7A08F9
:0708400079CE12086F80FE63
:1008EF007F3812090F7F0C12090F7F0112090F7F3A
:0408FF008002090F5B
:08090F00C2A0120847C2A12298
:08091700D2A0120847C2A12280
:10086F008B088A09890AAB08AA09A90A1208D6FFB8
:10087F0060101209177401250AF50AE43509F50904
:03088F0080E422E0
:100892008C088D09EE7015EF24FE600904700DE5D9
:1008A20009247F8004E50924BFFF80027F801209AA
:0208B2000F2213
:05091F007F0102090F39
:03000000020903EF
:0C090300787FE4F6D8FD75810A02080038
:1008D600BB010689828A83E0225002E722BBFE0220
:0908E600E32289828A83E4932253
:00000001FF
